{
  "contractName": "SupplyChain",
  "abi": [
    {
      "constant": true,
      "inputs": [
        {
          "internalType": "string",
          "name": "",
          "type": "string"
        }
      ],
      "name": "Products",
      "outputs": [
        {
          "internalType": "bool",
          "name": "exist",
          "type": "bool"
        },
        {
          "internalType": "string",
          "name": "productName",
          "type": "string"
        },
        {
          "internalType": "string",
          "name": "producerName",
          "type": "string"
        },
        {
          "internalType": "uint256",
          "name": "totalComponents",
          "type": "uint256"
        }
      ],
      "payable": false,
      "stateMutability": "view",
      "type": "function"
    },
    {
      "constant": true,
      "inputs": [
        {
          "internalType": "uint256",
          "name": "",
          "type": "uint256"
        }
      ],
      "name": "ProductsIndex",
      "outputs": [
        {
          "internalType": "string",
          "name": "",
          "type": "string"
        }
      ],
      "payable": false,
      "stateMutability": "view",
      "type": "function"
    },
    {
      "constant": true,
      "inputs": [
        {
          "internalType": "string",
          "name": "",
          "type": "string"
        }
      ],
      "name": "Supplies",
      "outputs": [
        {
          "internalType": "bool",
          "name": "exist",
          "type": "bool"
        },
        {
          "internalType": "bool",
          "name": "used",
          "type": "bool"
        },
        {
          "internalType": "string",
          "name": "supplyName",
          "type": "string"
        },
        {
          "internalType": "string",
          "name": "supplierName",
          "type": "string"
        }
      ],
      "payable": false,
      "stateMutability": "view",
      "type": "function"
    },
    {
      "constant": true,
      "inputs": [
        {
          "internalType": "uint256",
          "name": "",
          "type": "uint256"
        }
      ],
      "name": "SuppliesIndex",
      "outputs": [
        {
          "internalType": "string",
          "name": "",
          "type": "string"
        }
      ],
      "payable": false,
      "stateMutability": "view",
      "type": "function"
    },
    {
      "constant": false,
      "inputs": [
        {
          "internalType": "string",
          "name": "supplier",
          "type": "string"
        },
        {
          "internalType": "string",
          "name": "_supplyName",
          "type": "string"
        },
        {
          "internalType": "string",
          "name": "supplyID",
          "type": "string"
        }
      ],
      "name": "uploadSupply",
      "outputs": [
        {
          "internalType": "string",
          "name": "",
          "type": "string"
        }
      ],
      "payable": false,
      "stateMutability": "nonpayable",
      "type": "function"
    },
    {
      "constant": false,
      "inputs": [
        {
          "internalType": "string",
          "name": "producer",
          "type": "string"
        },
        {
          "internalType": "string",
          "name": "componentID",
          "type": "string"
        },
        {
          "internalType": "string",
          "name": "_productName",
          "type": "string"
        },
        {
          "internalType": "string",
          "name": "productID",
          "type": "string"
        }
      ],
      "name": "assignPart",
      "outputs": [
        {
          "internalType": "string",
          "name": "",
          "type": "string"
        }
      ],
      "payable": false,
      "stateMutability": "nonpayable",
      "type": "function"
    },
    {
      "constant": true,
      "inputs": [
        {
          "internalType": "string",
          "name": "productID",
          "type": "string"
        }
      ],
      "name": "getProductInfo",
      "outputs": [
        {
          "internalType": "string",
          "name": "PName",
          "type": "string"
        },
        {
          "internalType": "string",
          "name": "PerName",
          "type": "string"
        },
        {
          "internalType": "uint256",
          "name": "N",
          "type": "uint256"
        },
        {
          "internalType": "string[]",
          "name": "supplyIDs",
          "type": "string[]"
        },
        {
          "internalType": "string[]",
          "name": "supplyNames",
          "type": "string[]"
        },
        {
          "internalType": "string[]",
          "name": "supplierNames",
          "type": "string[]"
        }
      ],
      "payable": false,
      "stateMutability": "view",
      "type": "function"
    },
    {
      "constant": true,
      "inputs": [],
      "name": "getTotalSupply",
      "outputs": [
        {
          "internalType": "uint256",
          "name": "",
          "type": "uint256"
        }
      ],
      "payable": false,
      "stateMutability": "view",
      "type": "function"
    },
    {
      "constant": true,
      "inputs": [],
      "name": "getTotalProduct",
      "outputs": [
        {
          "internalType": "uint256",
          "name": "",
          "type": "uint256"
        }
      ],
      "payable": false,
      "stateMutability": "view",
      "type": "function"
    },
    {
      "constant": true,
      "inputs": [
        {
          "internalType": "string",
          "name": "productID",
          "type": "string"
        }
      ],
      "name": "getTotalComponents",
      "outputs": [
        {
          "internalType": "uint256",
          "name": "",
          "type": "uint256"
        }
      ],
      "payable": false,
      "stateMutability": "view",
      "type": "function"
    }
  ],
  "bytecode": "0x608060405234801561001057600080fd5b50611d06806100206000396000f3fe608060405234801561001057600080fd5b506004361061009e5760003560e01c806377f986161161006657806377f986161461019b578063b75dda7b146101b9578063baeee4cc146101ec578063bd5a8ab21461021c578063c4e41b221461024c5761009e565b80630caf5e5d146100a357806310fcd902146100d3578063361b80271461010357806357ba11b01461013657806357c25c751461016b575b600080fd5b6100bd60048036036100b8919081019061168a565b61026a565b6040516100ca91906119ff565b60405180910390f35b6100ed60048036036100e8919081019061168a565b61031a565b6040516100fa91906119ff565b60405180910390f35b61011d600480360361011891908101906114ae565b6103ca565b60405161012d9493929190611959565b60405180910390f35b610150600480360361014b91908101906114ef565b61055a565b60405161016296959493929190611a43565b60405180910390f35b61018560048036036101809190810190611530565b610a92565b6040516101929190611a21565b60405180910390f35b6101a3610c70565b6040516101b09190611b27565b60405180910390f35b6101d360048036036101ce91908101906114ae565b610c7a565b6040516101e394939291906119ac565b60405180910390f35b610206600480360361020191908101906115c7565b610dfd565b6040516102139190611a21565b60405180910390f35b610236600480360361023191908101906114ef565b611291565b6040516102439190611b27565b60405180910390f35b6102546112bc565b6040516102619190611b27565b60405180910390f35b60046020528060005260406000206000915090508054600181600116156101000203166002900480601f0160208091040260200160405190810160405280929190818152602001828054600181600116156101000203166002900480156103125780601f106102e757610100808354040283529160200191610312565b820191906000526020600020905b8154815290600101906020018083116102f557829003601f168201915b505050505081565b60016020528060005260406000206000915090508054600181600116156101000203166002900480601f0160208091040260200160405190810160405280929190818152602001828054600181600116156101000203166002900480156103c25780601f10610397576101008083540402835291602001916103c2565b820191906000526020600020905b8154815290600101906020018083116103a557829003601f168201915b505050505081565b6002818051602081018201805184825260208301602085012081835280955050505050506000915090508060000160009054906101000a900460ff16908060000160019054906101000a900460ff1690806001018054600181600116156101000203166002900480601f0160208091040260200160405190810160405280929190818152602001828054600181600116156101000203166002900480156104b25780601f10610487576101008083540402835291602001916104b2565b820191906000526020600020905b81548152906001019060200180831161049557829003601f168201915b505050505090806002018054600181600116156101000203166002900480601f0160208091040260200160405190810160405280929190818152602001828054600181600116156101000203166002900480156105505780601f1061052557610100808354040283529160200191610550565b820191906000526020600020905b81548152906001019060200180831161053357829003601f168201915b5050505050905084565b606080600060608060606005876040516105749190611942565b908152602001604051809103902060000160009054906101000a900460ff166105d2576040517f08c379a00000000000000000000000000000000000000000000000000000000081526004016105c990611ae7565b60405180910390fd5b6005876040516105e29190611942565b90815260200160405180910390206003015493506005876040516106069190611942565b90815260200160405180910390206001018054600181600116156101000203166002900480601f0160208091040260200160405190810160405280929190818152602001828054600181600116156101000203166002900480156106ab5780601f10610680576101008083540402835291602001916106ab565b820191906000526020600020905b81548152906001019060200180831161068e57829003601f168201915b505050505095506005876040516106c29190611942565b90815260200160405180910390206002018054600181600116156101000203166002900480601f0160208091040260200160405190810160405280929190818152602001828054600181600116156101000203166002900480156107675780601f1061073c57610100808354040283529160200191610767565b820191906000526020600020905b81548152906001019060200180831161074a57829003601f168201915b5050505050945060058760405161077e9190611942565b9081526020016040518091039020600401805480602002602001604051908101604052809291908181526020016000905b8282101561086b578382906000526020600020018054600181600116156101000203166002900480601f0160208091040260200160405190810160405280929190818152602001828054600181600116156101000203166002900480156108575780601f1061082c57610100808354040283529160200191610857565b820191906000526020600020905b81548152906001019060200180831161083a57829003601f168201915b5050505050815260200190600101906107af565b5050505092506005876040516108819190611942565b9081526020016040518091039020600501805480602002602001604051908101604052809291908181526020016000905b8282101561096e578382906000526020600020018054600181600116156101000203166002900480601f01602080910402602001604051908101604052809291908181526020018280546001816001161561010002031660029004801561095a5780601f1061092f5761010080835404028352916020019161095a565b820191906000526020600020905b81548152906001019060200180831161093d57829003601f168201915b5050505050815260200190600101906108b2565b5050505091506005876040516109849190611942565b9081526020016040518091039020600601805480602002602001604051908101604052809291908181526020016000905b82821015610a71578382906000526020600020018054600181600116156101000203166002900480601f016020809104026020016040519081016040528092919081815260200182805460018160011615610100020316600290048015610a5d5780601f10610a3257610100808354040283529160200191610a5d565b820191906000526020600020905b815481529060010190602001808311610a4057829003601f168201915b5050505050815260200190600101906109b5565b50505050905085858585858595509550955095509550955091939550919395565b606082600283604051610aa59190611942565b90815260200160405180910390206001019080519060200190610ac99291906112c5565b5083600283604051610adb9190611942565b90815260200160405180910390206002019080519060200190610aff9291906112c5565b506001600283604051610b129190611942565b908152602001604051809103902060000160006101000a81548160ff0219169083151502179055506000600283604051610b4c9190611942565b908152602001604051809103902060000160016101000a81548160ff0219169083151502179055508160016000805481526020019081526020016000209080519060200190610b9c9291906112c5565b5060016000808282540192505081905550600282604051610bbd9190611942565b90815260200160405180910390206001018054600181600116156101000203166002900480601f016020809104026020016040519081016040528092919081815260200182805460018160011615610100020316600290048015610c625780601f10610c3757610100808354040283529160200191610c62565b820191906000526020600020905b815481529060010190602001808311610c4557829003601f168201915b505050505090509392505050565b6000600354905090565b6005818051602081018201805184825260208301602085012081835280955050505050506000915090508060000160009054906101000a900460ff1690806001018054600181600116156101000203166002900480601f016020809104026020016040519081016040528092919081815260200182805460018160011615610100020316600290048015610d4f5780601f10610d2457610100808354040283529160200191610d4f565b820191906000526020600020905b815481529060010190602001808311610d3257829003601f168201915b505050505090806002018054600181600116156101000203166002900480601f016020809104026020016040519081016040528092919081815260200182805460018160011615610100020316600290048015610ded5780601f10610dc257610100808354040283529160200191610ded565b820191906000526020600020905b815481529060010190602001808311610dd057829003601f168201915b5050505050908060030154905084565b6060600284604051610e0f9190611942565b908152602001604051809103902060000160009054906101000a900460ff16610e6d576040517f08c379a0000000000000000000000000000000000000000000000000000000008152600401610e6490611b07565b60405180910390fd5b600284604051610e7d9190611942565b908152602001604051809103902060000160019054906101000a900460ff1615610edc576040517f08c379a0000000000000000000000000000000000000000000000000000000008152600401610ed390611ac7565b60405180910390fd5b600582604051610eec9190611942565b908152602001604051809103902060000160009054906101000a900460ff16610f5b576001600583604051610f219190611942565b908152602001604051809103902060000160006101000a81548160ff02191690831515021790555060016003600082825401925050819055505b82600583604051610f6c9190611942565b90815260200160405180910390206001019080519060200190610f909291906112c5565b5084600583604051610fa29190611942565b90815260200160405180910390206002019080519060200190610fc69291906112c5565b50600582604051610fd79190611942565b9081526020016040518091039020600501600285604051610ff89190611942565b9081526020016040518091039020600101908060018154018082558091505090600182039060005260206000200160009091929091909150908054600181600116156101000203166002900461104f929190611345565b50506005826040516110619190611942565b90815260200160405180910390206006016002856040516110829190611942565b908152602001604051809103902060020190806001815401808255809150509060018203906000526020600020016000909192909190915090805460018160011615610100020316600290046110d9929190611345565b50506005826040516110eb9190611942565b90815260200160405180910390206004018490806001815401808255809150509060018203906000526020600020016000909192909190915090805190602001906111379291906112c5565b5050600160058360405161114b9190611942565b908152602001604051809103902060030160008282540192505081905550600160028560405161117b9190611942565b908152602001604051809103902060000160016101000a81548160ff0219169083151502179055508160046000600354815260200190815260200160002090805190602001906111cc9291906112c5565b506005826040516111dd9190611942565b90815260200160405180910390206001018054600181600116156101000203166002900480601f0160208091040260200160405190810160405280929190818152602001828054600181600116156101000203166002900480156112825780601f1061125757610100808354040283529160200191611282565b820191906000526020600020905b81548152906001019060200180831161126557829003601f168201915b50505050509050949350505050565b60006005826040516112a39190611942565b9081526020016040518091039020600301549050919050565b60008054905090565b828054600181600116156101000203166002900490600052602060002090601f016020900481019282601f1061130657805160ff1916838001178555611334565b82800160010185558215611334579182015b82811115611333578251825591602001919060010190611318565b5b50905061134191906113cc565b5090565b828054600181600116156101000203166002900490600052602060002090601f016020900481019282601f1061137e57805485556113bb565b828001600101855582156113bb57600052602060002091601f016020900482015b828111156113ba57825482559160010191906001019061139f565b5b5090506113c891906113cc565b5090565b6113ee91905b808211156113ea5760008160009055506001016113d2565b5090565b90565b600082601f83011261140257600080fd5b813561141561141082611b6f565b611b42565b9150808252602083016020830185838301111561143157600080fd5b61143c838284611c59565b50505092915050565b600082601f83011261145657600080fd5b813561146961146482611b9b565b611b42565b9150808252602083016020830185838301111561148557600080fd5b611490838284611c59565b50505092915050565b6000813590506114a881611cac565b92915050565b6000602082840312156114c057600080fd5b600082013567ffffffffffffffff8111156114da57600080fd5b6114e6848285016113f1565b91505092915050565b60006020828403121561150157600080fd5b600082013567ffffffffffffffff81111561151b57600080fd5b61152784828501611445565b91505092915050565b60008060006060848603121561154557600080fd5b600084013567ffffffffffffffff81111561155f57600080fd5b61156b86828701611445565b935050602084013567ffffffffffffffff81111561158857600080fd5b61159486828701611445565b925050604084013567ffffffffffffffff8111156115b157600080fd5b6115bd86828701611445565b9150509250925092565b600080600080608085870312156115dd57600080fd5b600085013567ffffffffffffffff8111156115f757600080fd5b61160387828801611445565b945050602085013567ffffffffffffffff81111561162057600080fd5b61162c87828801611445565b935050604085013567ffffffffffffffff81111561164957600080fd5b61165587828801611445565b925050606085013567ffffffffffffffff81111561167257600080fd5b61167e87828801611445565b91505092959194509250565b60006020828403121561169c57600080fd5b60006116aa84828501611499565b91505092915050565b60006116bf83836117b5565b905092915050565b60006116d282611bd7565b6116dc8185611c05565b9350836020820285016116ee85611bc7565b8060005b8581101561172a578484038952815161170b85826116b3565b945061171683611bf8565b925060208a019950506001810190506116f2565b50829750879550505050505092915050565b61174581611c43565b82525050565b600061175682611bed565b6117608185611c27565b9350611770818560208601611c68565b61177981611c9b565b840191505092915050565b600061178f82611bed565b6117998185611c38565b93506117a9818560208601611c68565b80840191505092915050565b60006117c082611be2565b6117ca8185611c16565b93506117da818560208601611c68565b6117e381611c9b565b840191505092915050565b60006117f982611be2565b6118038185611c27565b9350611813818560208601611c68565b61181c81611c9b565b840191505092915050565b6000611834603883611c27565b91507f53656c656374656420436f6d706f6e656e7420697320416c726561647920417360008301527f7369676e656420746f204f746865722050726f647563742100000000000000006020830152604082019050919050565b600061189a601783611c27565b91507f50726f6475637420446f6573204e6f74204578697374210000000000000000006000830152602082019050919050565b60006118da602283611c27565b91507f53656c656374656420436f6d706f6e656e7420446f6573204e6f74204578697360008301527f74210000000000000000000000000000000000000000000000000000000000006020830152604082019050919050565b61193c81611c4f565b82525050565b600061194e8284611784565b915081905092915050565b600060808201905061196e600083018761173c565b61197b602083018661173c565b818103604083015261198d81856117ee565b905081810360608301526119a181846117ee565b905095945050505050565b60006080820190506119c1600083018761173c565b81810360208301526119d381866117ee565b905081810360408301526119e781856117ee565b90506119f66060830184611933565b95945050505050565b60006020820190508181036000830152611a1981846117ee565b905092915050565b60006020820190508181036000830152611a3b818461174b565b905092915050565b600060c0820190508181036000830152611a5d818961174b565b90508181036020830152611a71818861174b565b9050611a806040830187611933565b8181036060830152611a9281866116c7565b90508181036080830152611aa681856116c7565b905081810360a0830152611aba81846116c7565b9050979650505050505050565b60006020820190508181036000830152611ae081611827565b9050919050565b60006020820190508181036000830152611b008161188d565b9050919050565b60006020820190508181036000830152611b20816118cd565b9050919050565b6000602082019050611b3c6000830184611933565b92915050565b6000604051905081810181811067ffffffffffffffff82111715611b6557600080fd5b8060405250919050565b600067ffffffffffffffff821115611b8657600080fd5b601f19601f8301169050602081019050919050565b600067ffffffffffffffff821115611bb257600080fd5b601f19601f8301169050602081019050919050565b6000819050602082019050919050565b600081519050919050565b600081519050919050565b600081519050919050565b6000602082019050919050565b600082825260208201905092915050565b600082825260208201905092915050565b600082825260208201905092915050565b600081905092915050565b60008115159050919050565b6000819050919050565b82818337600083830152505050565b60005b83811015611c86578082015181840152602081019050611c6b565b83811115611c95576000848401525b50505050565b6000601f19601f8301169050919050565b611cb581611c4f565b8114611cc057600080fd5b5056fea365627a7a72315820067cc96bef9ec326eaac37bedaf633c55a42b587e83010e37dac199f04162c936c6578706572696d656e74616cf564736f6c634300050c0040",
  "source": "pragma solidity ^0.5.0;\r\npragma experimental ABIEncoderV2;\r\n\r\n//import \"../contracts/stringUtils.sol\";\r\n\r\n\r\ncontract SupplyChain {\r\n//===============================================================================//\r\n//=================================Variables=====================================//\r\n    struct supply {\r\n        bool exist;\r\n        bool used;\r\n        string supplyName;\r\n        string supplierName;\r\n    }\r\n\r\n    struct product {\r\n        bool exist;\r\n        string productName;\r\n        string producerName;\r\n        uint totalComponents;\r\n        string[] ComponentIDs;\r\n        string[] ComponentNames;\r\n        string[] ComponentsProviders;\r\n    }\r\n\r\n    uint private totalSupplies;\r\n    mapping(uint => string) public SuppliesIndex;\r\n    mapping(string => SupplyChain.supply) public Supplies;\r\n\r\n    uint private totalProducts;\r\n    mapping(uint => string) public ProductsIndex;\r\n    mapping(string => SupplyChain.product) public Products;\r\n\r\n//===============================================================================//\r\n//==================================Functions====================================//\r\n\r\n    // Supplier functions\r\n    function uploadSupply(string memory supplier, string memory _supplyName, string memory supplyID) public returns(string memory){\r\n        Supplies[supplyID].supplyName = _supplyName;\r\n        Supplies[supplyID].supplierName = supplier;\r\n\r\n        Supplies[supplyID].exist = true;\r\n        Supplies[supplyID].used = false;\r\n\r\n        SuppliesIndex[totalSupplies] = supplyID;\r\n        totalSupplies += 1;\r\n\r\n        return Supplies[supplyID].supplyName;\r\n    }\r\n\r\n    // Producer functions\r\n    function assignPart(string memory producer, string memory componentID, string memory _productName, string memory productID) public returns(string memory){\r\n        //supply part needs to exist\r\n        require(Supplies[componentID].exist, \"Selected Component Does Not Exist!\");\r\n\r\n        //supply part is not previously assigned\r\n        require(!Supplies[componentID].used, 'Selected Component is Already Assigned to Other Product!');\r\n\r\n        if (!Products[productID].exist){\r\n            Products[productID].exist = true;\r\n            totalProducts += 1;\r\n        }\r\n\r\n        Products[productID].productName = _productName;\r\n        Products[productID].producerName = producer;\r\n\r\n        Products[productID].ComponentNames.push(Supplies[componentID].supplyName);\r\n        Products[productID].ComponentsProviders.push(Supplies[componentID].supplierName);\r\n        Products[productID].ComponentIDs.push(componentID);\r\n        Products[productID].totalComponents += 1;\r\n\r\n        Supplies[componentID].used = true;\r\n\r\n        ProductsIndex[totalProducts] = productID;\r\n\r\n        return Products[productID].productName;\r\n    }\r\n\r\n    // Custumer funtions\r\n    function getProductInfo(string memory productID) public view returns(string memory PName, string memory PerName, uint N, string[] memory supplyIDs, string[] memory supplyNames, string[] memory supplierNames){\r\n        require(Products[productID].exist, \"Product Does Not Exist!\");\r\n\r\n        N = Products[productID].totalComponents;\r\n\r\n        // supplyIDs = new string[](N);\r\n        // supplyNames = new string[](N);\r\n        // supplierNames = new string[](N);\r\n\r\n        PName = Products[productID].productName;\r\n        PerName = Products[productID].producerName;\r\n\r\n        supplyIDs = Products[productID].ComponentIDs;\r\n        supplyNames = Products[productID].ComponentNames;\r\n        supplierNames = Products[productID].ComponentsProviders;\r\n\r\n        return (PName, PerName, N, supplyIDs, supplyNames, supplierNames);\r\n    }\r\n\r\n    // Getters\r\n    function getTotalSupply() public view returns(uint){\r\n        return totalSupplies;\r\n    }\r\n\r\n    function getTotalProduct() public view returns(uint){\r\n        return totalProducts;\r\n    }\r\n\r\n    function getTotalComponents(string memory productID) public view returns(uint){\r\n        return Products[productID].totalComponents;\r\n    }\r\n    //\r\n}",
  "sourcePath": "E:/Uniwork Toronto/Fall/APS1050 Blockchain/Project/supply-chain-develop/contracts/SupplyChain.sol",
  "compiler": {
    "name": "solc",
    "version": "0.5.12+commit.7709ece9.Emscripten.clang"
  },
  "schemaVersion": "3.0.18",
  "updatedAt": "2019-12-15T00:05:37.832Z",
  "networkType": "ethereum",
  "devdoc": {
    "methods": {}
  },
  "userdoc": {
    "methods": {}
  }
}