{
  "contractName": "SupplyChain",
  "abi": [
    {
      "constant": true,
      "inputs": [
        {
          "internalType": "string",
          "name": "",
          "type": "string"
        }
      ],
      "name": "Products",
      "outputs": [
        {
          "internalType": "bool",
          "name": "exist",
          "type": "bool"
        },
        {
          "internalType": "string",
          "name": "productName",
          "type": "string"
        },
        {
          "internalType": "string",
          "name": "producerName",
          "type": "string"
        },
        {
          "internalType": "uint256",
          "name": "totalComponents",
          "type": "uint256"
        }
      ],
      "payable": false,
      "stateMutability": "view",
      "type": "function"
    },
    {
      "constant": true,
      "inputs": [
        {
          "internalType": "uint256",
          "name": "",
          "type": "uint256"
        }
      ],
      "name": "ProductsIndex",
      "outputs": [
        {
          "internalType": "string",
          "name": "",
          "type": "string"
        }
      ],
      "payable": false,
      "stateMutability": "view",
      "type": "function"
    },
    {
      "constant": true,
      "inputs": [
        {
          "internalType": "string",
          "name": "",
          "type": "string"
        }
      ],
      "name": "Supplies",
      "outputs": [
        {
          "internalType": "bool",
          "name": "exist",
          "type": "bool"
        },
        {
          "internalType": "bool",
          "name": "used",
          "type": "bool"
        },
        {
          "internalType": "string",
          "name": "supplyName",
          "type": "string"
        },
        {
          "internalType": "string",
          "name": "supplierName",
          "type": "string"
        }
      ],
      "payable": false,
      "stateMutability": "view",
      "type": "function"
    },
    {
      "constant": true,
      "inputs": [
        {
          "internalType": "uint256",
          "name": "",
          "type": "uint256"
        }
      ],
      "name": "SuppliesIndex",
      "outputs": [
        {
          "internalType": "string",
          "name": "",
          "type": "string"
        }
      ],
      "payable": false,
      "stateMutability": "view",
      "type": "function"
    },
    {
      "constant": false,
      "inputs": [
        {
          "internalType": "string",
          "name": "supplier",
          "type": "string"
        },
        {
          "internalType": "string",
          "name": "_supplyName",
          "type": "string"
        },
        {
          "internalType": "string",
          "name": "supplyID",
          "type": "string"
        }
      ],
      "name": "uploadSupply",
      "outputs": [
        {
          "internalType": "string",
          "name": "",
          "type": "string"
        }
      ],
      "payable": false,
      "stateMutability": "nonpayable",
      "type": "function"
    },
    {
      "constant": false,
      "inputs": [
        {
          "internalType": "string",
          "name": "producer",
          "type": "string"
        },
        {
          "internalType": "string",
          "name": "componentID",
          "type": "string"
        },
        {
          "internalType": "string",
          "name": "_productName",
          "type": "string"
        },
        {
          "internalType": "string",
          "name": "productID",
          "type": "string"
        }
      ],
      "name": "assignPart",
      "outputs": [
        {
          "internalType": "string",
          "name": "",
          "type": "string"
        }
      ],
      "payable": false,
      "stateMutability": "nonpayable",
      "type": "function"
    },
    {
      "constant": true,
      "inputs": [
        {
          "internalType": "string",
          "name": "productID",
          "type": "string"
        }
      ],
      "name": "getProductInfo",
      "outputs": [
        {
          "internalType": "string",
          "name": "PName",
          "type": "string"
        },
        {
          "internalType": "string",
          "name": "PerName",
          "type": "string"
        },
        {
          "internalType": "uint256",
          "name": "N",
          "type": "uint256"
        },
        {
          "internalType": "string[]",
          "name": "supplyIDs",
          "type": "string[]"
        },
        {
          "internalType": "string[]",
          "name": "supplyNames",
          "type": "string[]"
        },
        {
          "internalType": "string[]",
          "name": "supplierNames",
          "type": "string[]"
        }
      ],
      "payable": false,
      "stateMutability": "view",
      "type": "function"
    },
    {
      "constant": true,
      "inputs": [],
      "name": "getTotalSupply",
      "outputs": [
        {
          "internalType": "uint256",
          "name": "",
          "type": "uint256"
        }
      ],
      "payable": false,
      "stateMutability": "view",
      "type": "function"
    },
    {
      "constant": true,
      "inputs": [],
      "name": "getTotalProduct",
      "outputs": [
        {
          "internalType": "uint256",
          "name": "",
          "type": "uint256"
        }
      ],
      "payable": false,
      "stateMutability": "view",
      "type": "function"
    },
    {
      "constant": true,
      "inputs": [
        {
          "internalType": "string",
          "name": "productID",
          "type": "string"
        }
      ],
      "name": "getTotalComponents",
      "outputs": [
        {
          "internalType": "uint256",
          "name": "",
          "type": "uint256"
        }
      ],
      "payable": false,
      "stateMutability": "view",
      "type": "function"
    }
  ],
  "bytecode": "0x608060405234801561001057600080fd5b50611dd5806100206000396000f3fe608060405234801561001057600080fd5b506004361061009e5760003560e01c806377f986161161006657806377f986161461019b578063b75dda7b146101b9578063baeee4cc146101ec578063bd5a8ab21461021c578063c4e41b221461024c5761009e565b80630caf5e5d146100a357806310fcd902146100d3578063361b80271461010357806357ba11b01461013657806357c25c751461016b575b600080fd5b6100bd60048036036100b891908101906116f9565b61026a565b6040516100ca9190611aae565b60405180910390f35b6100ed60048036036100e891908101906116f9565b61031a565b6040516100fa9190611aae565b60405180910390f35b61011d6004803603610118919081019061151d565b6103ca565b60405161012d9493929190611a08565b60405180910390f35b610150600480360361014b919081019061155e565b61055a565b60405161016296959493929190611af2565b60405180910390f35b6101856004803603610180919081019061159f565b610a92565b6040516101929190611ad0565b60405180910390f35b6101a3610cdf565b6040516101b09190611bf6565b60405180910390f35b6101d360048036036101ce919081019061151d565b610ce9565b6040516101e39493929190611a5b565b60405180910390f35b61020660048036036102019190810190611636565b610e6c565b6040516102139190611ad0565b60405180910390f35b6102366004803603610231919081019061155e565b611300565b6040516102439190611bf6565b60405180910390f35b61025461132b565b6040516102619190611bf6565b60405180910390f35b60046020528060005260406000206000915090508054600181600116156101000203166002900480601f0160208091040260200160405190810160405280929190818152602001828054600181600116156101000203166002900480156103125780601f106102e757610100808354040283529160200191610312565b820191906000526020600020905b8154815290600101906020018083116102f557829003601f168201915b505050505081565b60016020528060005260406000206000915090508054600181600116156101000203166002900480601f0160208091040260200160405190810160405280929190818152602001828054600181600116156101000203166002900480156103c25780601f10610397576101008083540402835291602001916103c2565b820191906000526020600020905b8154815290600101906020018083116103a557829003601f168201915b505050505081565b6002818051602081018201805184825260208301602085012081835280955050505050506000915090508060000160009054906101000a900460ff16908060000160019054906101000a900460ff1690806001018054600181600116156101000203166002900480601f0160208091040260200160405190810160405280929190818152602001828054600181600116156101000203166002900480156104b25780601f10610487576101008083540402835291602001916104b2565b820191906000526020600020905b81548152906001019060200180831161049557829003601f168201915b505050505090806002018054600181600116156101000203166002900480601f0160208091040260200160405190810160405280929190818152602001828054600181600116156101000203166002900480156105505780601f1061052557610100808354040283529160200191610550565b820191906000526020600020905b81548152906001019060200180831161053357829003601f168201915b5050505050905084565b6060806000606080606060058760405161057491906119f1565b908152602001604051809103902060000160009054906101000a900460ff166105d2576040517f08c379a00000000000000000000000000000000000000000000000000000000081526004016105c990611bb6565b60405180910390fd5b6005876040516105e291906119f1565b908152602001604051809103902060030154935060058760405161060691906119f1565b90815260200160405180910390206001018054600181600116156101000203166002900480601f0160208091040260200160405190810160405280929190818152602001828054600181600116156101000203166002900480156106ab5780601f10610680576101008083540402835291602001916106ab565b820191906000526020600020905b81548152906001019060200180831161068e57829003601f168201915b505050505095506005876040516106c291906119f1565b90815260200160405180910390206002018054600181600116156101000203166002900480601f0160208091040260200160405190810160405280929190818152602001828054600181600116156101000203166002900480156107675780601f1061073c57610100808354040283529160200191610767565b820191906000526020600020905b81548152906001019060200180831161074a57829003601f168201915b5050505050945060058760405161077e91906119f1565b9081526020016040518091039020600401805480602002602001604051908101604052809291908181526020016000905b8282101561086b578382906000526020600020018054600181600116156101000203166002900480601f0160208091040260200160405190810160405280929190818152602001828054600181600116156101000203166002900480156108575780601f1061082c57610100808354040283529160200191610857565b820191906000526020600020905b81548152906001019060200180831161083a57829003601f168201915b5050505050815260200190600101906107af565b50505050925060058760405161088191906119f1565b9081526020016040518091039020600501805480602002602001604051908101604052809291908181526020016000905b8282101561096e578382906000526020600020018054600181600116156101000203166002900480601f01602080910402602001604051908101604052809291908181526020018280546001816001161561010002031660029004801561095a5780601f1061092f5761010080835404028352916020019161095a565b820191906000526020600020905b81548152906001019060200180831161093d57829003601f168201915b5050505050815260200190600101906108b2565b50505050915060058760405161098491906119f1565b9081526020016040518091039020600601805480602002602001604051908101604052809291908181526020016000905b82821015610a71578382906000526020600020018054600181600116156101000203166002900480601f016020809104026020016040519081016040528092919081815260200182805460018160011615610100020316600290048015610a5d5780601f10610a3257610100808354040283529160200191610a5d565b820191906000526020600020905b815481529060010190602001808311610a4057829003601f168201915b5050505050815260200190600101906109b5565b50505050905085858585858595509550955095509550955091939550919395565b6060600282604051610aa491906119f1565b908152602001604051809103902060000160009054906101000a900460ff1615610b03576040517f08c379a0000000000000000000000000000000000000000000000000000000008152600401610afa90611b96565b60405180910390fd5b82600283604051610b1491906119f1565b90815260200160405180910390206001019080519060200190610b38929190611334565b5083600283604051610b4a91906119f1565b90815260200160405180910390206002019080519060200190610b6e929190611334565b506001600283604051610b8191906119f1565b908152602001604051809103902060000160006101000a81548160ff0219169083151502179055506000600283604051610bbb91906119f1565b908152602001604051809103902060000160016101000a81548160ff0219169083151502179055508160016000805481526020019081526020016000209080519060200190610c0b929190611334565b5060016000808282540192505081905550600282604051610c2c91906119f1565b90815260200160405180910390206001018054600181600116156101000203166002900480601f016020809104026020016040519081016040528092919081815260200182805460018160011615610100020316600290048015610cd15780601f10610ca657610100808354040283529160200191610cd1565b820191906000526020600020905b815481529060010190602001808311610cb457829003601f168201915b505050505090509392505050565b6000600354905090565b6005818051602081018201805184825260208301602085012081835280955050505050506000915090508060000160009054906101000a900460ff1690806001018054600181600116156101000203166002900480601f016020809104026020016040519081016040528092919081815260200182805460018160011615610100020316600290048015610dbe5780601f10610d9357610100808354040283529160200191610dbe565b820191906000526020600020905b815481529060010190602001808311610da157829003601f168201915b505050505090806002018054600181600116156101000203166002900480601f016020809104026020016040519081016040528092919081815260200182805460018160011615610100020316600290048015610e5c5780601f10610e3157610100808354040283529160200191610e5c565b820191906000526020600020905b815481529060010190602001808311610e3f57829003601f168201915b5050505050908060030154905084565b6060600284604051610e7e91906119f1565b908152602001604051809103902060000160009054906101000a900460ff16610edc576040517f08c379a0000000000000000000000000000000000000000000000000000000008152600401610ed390611bd6565b60405180910390fd5b600284604051610eec91906119f1565b908152602001604051809103902060000160019054906101000a900460ff1615610f4b576040517f08c379a0000000000000000000000000000000000000000000000000000000008152600401610f4290611b76565b60405180910390fd5b600582604051610f5b91906119f1565b908152602001604051809103902060000160009054906101000a900460ff16610fca576001600583604051610f9091906119f1565b908152602001604051809103902060000160006101000a81548160ff02191690831515021790555060016003600082825401925050819055505b82600583604051610fdb91906119f1565b90815260200160405180910390206001019080519060200190610fff929190611334565b508460058360405161101191906119f1565b90815260200160405180910390206002019080519060200190611035929190611334565b5060058260405161104691906119f1565b908152602001604051809103902060050160028560405161106791906119f1565b908152602001604051809103902060010190806001815401808255809150509060018203906000526020600020016000909192909190915090805460018160011615610100020316600290046110be9291906113b4565b50506005826040516110d091906119f1565b90815260200160405180910390206006016002856040516110f191906119f1565b908152602001604051809103902060020190806001815401808255809150509060018203906000526020600020016000909192909190915090805460018160011615610100020316600290046111489291906113b4565b505060058260405161115a91906119f1565b90815260200160405180910390206004018490806001815401808255809150509060018203906000526020600020016000909192909190915090805190602001906111a6929190611334565b505060016005836040516111ba91906119f1565b90815260200160405180910390206003016000828254019250508190555060016002856040516111ea91906119f1565b908152602001604051809103902060000160016101000a81548160ff02191690831515021790555081600460006003548152602001908152602001600020908051906020019061123b929190611334565b5060058260405161124c91906119f1565b90815260200160405180910390206001018054600181600116156101000203166002900480601f0160208091040260200160405190810160405280929190818152602001828054600181600116156101000203166002900480156112f15780601f106112c6576101008083540402835291602001916112f1565b820191906000526020600020905b8154815290600101906020018083116112d457829003601f168201915b50505050509050949350505050565b600060058260405161131291906119f1565b9081526020016040518091039020600301549050919050565b60008054905090565b828054600181600116156101000203166002900490600052602060002090601f016020900481019282601f1061137557805160ff19168380011785556113a3565b828001600101855582156113a3579182015b828111156113a2578251825591602001919060010190611387565b5b5090506113b0919061143b565b5090565b828054600181600116156101000203166002900490600052602060002090601f016020900481019282601f106113ed578054855561142a565b8280016001018555821561142a57600052602060002091601f016020900482015b8281111561142957825482559160010191906001019061140e565b5b509050611437919061143b565b5090565b61145d91905b80821115611459576000816000905550600101611441565b5090565b90565b600082601f83011261147157600080fd5b813561148461147f82611c3e565b611c11565b915080825260208301602083018583830111156114a057600080fd5b6114ab838284611d28565b50505092915050565b600082601f8301126114c557600080fd5b81356114d86114d382611c6a565b611c11565b915080825260208301602083018583830111156114f457600080fd5b6114ff838284611d28565b50505092915050565b60008135905061151781611d7b565b92915050565b60006020828403121561152f57600080fd5b600082013567ffffffffffffffff81111561154957600080fd5b61155584828501611460565b91505092915050565b60006020828403121561157057600080fd5b600082013567ffffffffffffffff81111561158a57600080fd5b611596848285016114b4565b91505092915050565b6000806000606084860312156115b457600080fd5b600084013567ffffffffffffffff8111156115ce57600080fd5b6115da868287016114b4565b935050602084013567ffffffffffffffff8111156115f757600080fd5b611603868287016114b4565b925050604084013567ffffffffffffffff81111561162057600080fd5b61162c868287016114b4565b9150509250925092565b6000806000806080858703121561164c57600080fd5b600085013567ffffffffffffffff81111561166657600080fd5b611672878288016114b4565b945050602085013567ffffffffffffffff81111561168f57600080fd5b61169b878288016114b4565b935050604085013567ffffffffffffffff8111156116b857600080fd5b6116c4878288016114b4565b925050606085013567ffffffffffffffff8111156116e157600080fd5b6116ed878288016114b4565b91505092959194509250565b60006020828403121561170b57600080fd5b600061171984828501611508565b91505092915050565b600061172e8383611824565b905092915050565b600061174182611ca6565b61174b8185611cd4565b93508360208202850161175d85611c96565b8060005b85811015611799578484038952815161177a8582611722565b945061178583611cc7565b925060208a01995050600181019050611761565b50829750879550505050505092915050565b6117b481611d12565b82525050565b60006117c582611cbc565b6117cf8185611cf6565b93506117df818560208601611d37565b6117e881611d6a565b840191505092915050565b60006117fe82611cbc565b6118088185611d07565b9350611818818560208601611d37565b80840191505092915050565b600061182f82611cb1565b6118398185611ce5565b9350611849818560208601611d37565b61185281611d6a565b840191505092915050565b600061186882611cb1565b6118728185611cf6565b9350611882818560208601611d37565b61188b81611d6a565b840191505092915050565b60006118a3603883611cf6565b91507f53656c656374656420436f6d706f6e656e7420697320416c726561647920417360008301527f7369676e656420746f204f746865722050726f647563742100000000000000006020830152604082019050919050565b6000611909601883611cf6565b91507f436f6d706f6e656e7420416c72656164792045786973742100000000000000006000830152602082019050919050565b6000611949601783611cf6565b91507f50726f6475637420446f6573204e6f74204578697374210000000000000000006000830152602082019050919050565b6000611989602283611cf6565b91507f53656c656374656420436f6d706f6e656e7420446f6573204e6f74204578697360008301527f74210000000000000000000000000000000000000000000000000000000000006020830152604082019050919050565b6119eb81611d1e565b82525050565b60006119fd82846117f3565b915081905092915050565b6000608082019050611a1d60008301876117ab565b611a2a60208301866117ab565b8181036040830152611a3c818561185d565b90508181036060830152611a50818461185d565b905095945050505050565b6000608082019050611a7060008301876117ab565b8181036020830152611a82818661185d565b90508181036040830152611a96818561185d565b9050611aa560608301846119e2565b95945050505050565b60006020820190508181036000830152611ac8818461185d565b905092915050565b60006020820190508181036000830152611aea81846117ba565b905092915050565b600060c0820190508181036000830152611b0c81896117ba565b90508181036020830152611b2081886117ba565b9050611b2f60408301876119e2565b8181036060830152611b418186611736565b90508181036080830152611b558185611736565b905081810360a0830152611b698184611736565b9050979650505050505050565b60006020820190508181036000830152611b8f81611896565b9050919050565b60006020820190508181036000830152611baf816118fc565b9050919050565b60006020820190508181036000830152611bcf8161193c565b9050919050565b60006020820190508181036000830152611bef8161197c565b9050919050565b6000602082019050611c0b60008301846119e2565b92915050565b6000604051905081810181811067ffffffffffffffff82111715611c3457600080fd5b8060405250919050565b600067ffffffffffffffff821115611c5557600080fd5b601f19601f8301169050602081019050919050565b600067ffffffffffffffff821115611c8157600080fd5b601f19601f8301169050602081019050919050565b6000819050602082019050919050565b600081519050919050565b600081519050919050565b600081519050919050565b6000602082019050919050565b600082825260208201905092915050565b600082825260208201905092915050565b600082825260208201905092915050565b600081905092915050565b60008115159050919050565b6000819050919050565b82818337600083830152505050565b60005b83811015611d55578082015181840152602081019050611d3a565b83811115611d64576000848401525b50505050565b6000601f19601f8301169050919050565b611d8481611d1e565b8114611d8f57600080fd5b5056fea365627a7a723158205421bc259c5844d7177cd1826a4dc37cdeb34e08fc30bcf59e78867c8b00e08c6c6578706572696d656e74616cf564736f6c634300050c0040",
  "source": "pragma solidity ^0.5.0;\r\npragma experimental ABIEncoderV2;\r\n\r\n// import \"../contracts/Seriality.sol\";\r\n\r\n\r\ncontract SupplyChain {\r\n//===============================================================================//\r\n//=================================Variables=====================================//\r\n    struct supply {\r\n        bool exist;\r\n        bool used;\r\n        string supplyName;\r\n        string supplierName;\r\n    }\r\n\r\n    struct product {\r\n        bool exist;\r\n        string productName;\r\n        string producerName;\r\n        uint totalComponents;\r\n        string[] ComponentIDs;\r\n        string[] ComponentNames;\r\n        string[] ComponentsProviders;\r\n    }\r\n\r\n    uint private totalSupplies;\r\n    mapping(uint => string) public SuppliesIndex;\r\n    mapping(string => SupplyChain.supply) public Supplies;\r\n\r\n    uint private totalProducts;\r\n    mapping(uint => string) public ProductsIndex;\r\n    mapping(string => SupplyChain.product) public Products;\r\n\r\n//===============================================================================//\r\n//==================================Functions====================================//\r\n\r\n    // Supplier functions\r\n    function uploadSupply(string memory supplier, string memory _supplyName, string memory supplyID) public returns(string memory){\r\n        require(!Supplies[supplyID].exist, \"Component Already Exist!\");\r\n\r\n        Supplies[supplyID].supplyName = _supplyName;\r\n        Supplies[supplyID].supplierName = supplier;\r\n\r\n        Supplies[supplyID].exist = true;\r\n        Supplies[supplyID].used = false;\r\n\r\n        SuppliesIndex[totalSupplies] = supplyID;\r\n        totalSupplies += 1;\r\n\r\n        return Supplies[supplyID].supplyName;\r\n    }\r\n\r\n    // Producer functions\r\n    function assignPart(string memory producer, string memory componentID, string memory _productName, string memory productID) public returns(string memory){\r\n        //supply part needs to exist\r\n        require(Supplies[componentID].exist, \"Selected Component Does Not Exist!\");\r\n\r\n        //supply part is not previously assigned\r\n        require(!Supplies[componentID].used, 'Selected Component is Already Assigned to Other Product!');\r\n\r\n        if (!Products[productID].exist){\r\n            Products[productID].exist = true;\r\n            totalProducts += 1;\r\n        }\r\n\r\n        Products[productID].productName = _productName;\r\n        Products[productID].producerName = producer;\r\n\r\n        Products[productID].ComponentNames.push(Supplies[componentID].supplyName);\r\n        Products[productID].ComponentsProviders.push(Supplies[componentID].supplierName);\r\n        Products[productID].ComponentIDs.push(componentID);\r\n        Products[productID].totalComponents += 1;\r\n\r\n        Supplies[componentID].used = true;\r\n\r\n        ProductsIndex[totalProducts] = productID;\r\n\r\n        return Products[productID].productName;\r\n    }\r\n\r\n    // Custumer funtions\r\n    function getProductInfo(string memory productID) public view returns(string memory PName, string memory PerName, uint N, string[] memory supplyIDs, string[] memory supplyNames, string[] memory supplierNames){\r\n        require(Products[productID].exist, \"Product Does Not Exist!\");\r\n\r\n        N = Products[productID].totalComponents;\r\n\r\n        // supplyIDs = new string[](N);\r\n        // supplyNames = new string[](N);\r\n        // supplierNames = new string[](N);\r\n\r\n        PName = Products[productID].productName;\r\n        PerName = Products[productID].producerName;\r\n\r\n        supplyIDs = Products[productID].ComponentIDs;\r\n        supplyNames = Products[productID].ComponentNames;\r\n        supplierNames = Products[productID].ComponentsProviders;\r\n\r\n        return (PName, PerName, N, supplyIDs, supplyNames, supplierNames);\r\n    }\r\n\r\n    // Getters\r\n    function getTotalSupply() public view returns(uint){\r\n        return totalSupplies;\r\n    }\r\n\r\n    function getTotalProduct() public view returns(uint){\r\n        return totalProducts;\r\n    }\r\n\r\n    function getTotalComponents(string memory productID) public view returns(uint){\r\n        return Products[productID].totalComponents;\r\n    }\r\n    //\r\n}",
  "sourcePath": "E:/Uniwork Toronto/Fall/APS1050 Blockchain/Project/supply-chain-develop/contracts/SupplyChain.sol",
  "compiler": {
    "name": "solc",
    "version": "0.5.12+commit.7709ece9.Emscripten.clang"
  },
  "schemaVersion": "3.0.18",
  "updatedAt": "2019-12-16T08:46:56.975Z",
  "devdoc": {
    "methods": {}
  },
  "userdoc": {
    "methods": {}
  }
}